:020000040800F2
:100000005008002089010008AF0F0008090F000800
:10001000AD0F00088F0200080F1300080000000059
:10002000000000000000000000000000A91200080D
:10003000C702000800000000B10F0008AB12000862
:10004000A3010008A3010008A3010008A301000800
:10005000A3010008A3010008A3010008A3010008F0
:10006000A3010008A3010008A3010008A3010008E0
:10007000A301000891020008A3010008A3010008E1
:10008000A3010008A3010008A3010008A3010008C0
:10009000A3010008A3010008A3010008A3010008B0
:1000A000A3010008A3010008A3010008A3010008A0
:1000B000A3010008A3010008A3010008A301000890
:1000C000A3010008A3010008A3010008A301000880
:1000D000A3010008A3010008A3010008A301000870
:1000E000A3010008A3010008A301000800F002F822
:1000F00000F03AF80AA090E8000C82448344AAF188
:100100000107DA4501D100F02FF8AFF2090EBAE885
:100110000F0013F0010F18BFFB1A43F0010318473B
:100120008C120000AC120000103A24BF78C878C1CD
:10013000FAD8520724BF30C830C144BF04680C60ED
:10014000704700000023002400250026103A28BF35
:1001500078C1FBD8520728BF30C148BF0B60704739
:100160001FB51FBD10B510BD00F058F81146FFF7C0
:10017000F7FF01F0DDF800F076F803B4FFF7F2FFC7
:1001800003BC00F07DF8000009488047094800479B
:10019000FEE7FEE7FEE7FEE7FEE7FEE7FEE7FEE737
:1001A000FEE7FEE704480549054A064B7047000094
:1001B0000D130008ED000008500200205008002038
:1001C00050040020500400204FF0000200B51346F8
:1001D00094469646203922BFA0E80C50A0E80C5067
:1001E000B1F12001BFF4F7AF090728BFA0E80C5018
:1001F00048BF0CC05DF804EB890028BF40F8042B11
:1002000008BF704748BF20F8022B11F0804F18BF7D
:1002100000F8012B7047704770477047754600F033
:100220002BF8AE4605006946534620F00700854688
:1002300018B020B5FFF7B6FFBDE820404FF000062C
:100240004FF000074FF000084FF0000B21F00701BE
:10025000AC46ACE8C009ACE8C009ACE8C009ACE801
:10026000C0098D46704710B50446AFF300802046A4
:10027000BDE81040FFF781BF00487047F001002043
:1002800001491820ABBEFEE7260002007047FEE7DA
:10029000014800F01FB800006800002030B590F859
:1002A00040500124AC40C56B6C60046863604368D7
:1002B000102B036803D099600068C26030BD9A605B
:1002C0000068C16030BD704772B6FEE790F821004B
:1002D000704700002DE9F05FC16B0C6801680B6886
:1002E000D0F840C0042202FA0CF2494DDFF824A1F4
:1002F000494E4A4FDFF828B1DFF828E122422CD0DE
:100300005A072AD50A68920603D40A6822F0040222
:100310000A600168A94201D1042219E0514501D1C6
:10032000402215E0B14202D14FF4806210E0B942A0
:1003300002D14FF480420BE0594502D14FF48022A4
:1003400006E0714502D14FF4800201E04FF0806277
:100350002F4908394A60C16A3BE04FF0020808FAA9
:100360000CF818EA040F4FF000094FF0010235D0E5
:100370005FEA837832D50B689B0605D40B6823F0BF
:100380000A030B6080F821200168A94201D10222F2
:1003900019E0514501D1202215E0B14202D14FF4BC
:1003A000007210E0B94202D14FF400520BE05945FF
:1003B00002D14FF4003206E0714502D14FF4001231
:1003C00001E04FF00072124908394A6080F820902D
:1003D000816A00291AD0BDE8F05F0847082505FAB0
:1003E0000CF5254212D01B0710D50B6823F00E0325
:1003F0000B6090F84010C36B02FA01F15960826300
:1004000080F8212080F82090016BE2E7BDE8F09FA2
:10041000080002401C00024030000240440002403C
:10042000580002406C00024030B528B308C8134998
:1004300014221944B1FBF2F18900C16310498163B0
:10044000022141771A6843F6F0718A43D0E900141B
:100450002143D0E902452C432143046921434469E7
:100460002143846921431143196000214163012222
:1004700042770177084630BD012030BDF8FFFDBF4F
:100480000000024070B5044690F8200000250128C5
:100490000CD0012084F8200094F821600020012E67
:1004A00006D084F820000225284670BD022070BDC9
:1004B000022684F82160A0632068066826F0010601
:1004C00006602046FFF7EAFEE06A0028206801681F
:1004D00002D041F00E0106E021F004010160206825
:1004E000016841F00A0101602068016841F00101E2
:1004F0000160D9E770B5044600F0FEF80546601CBF
:1005000002D004480078044400F0F6F8401BA042F2
:10051000FAD370BD000000202DE9F84FDFF8B89144
:100520000024A9F1040B23460F2709F1040AABF1BB
:10053000040EC9E00125A5402A40AA427DD1674E9C
:10054000D1F804C0ACEB0608B44532D014DCBCF1E1
:10055000030F3AD009DCBCF1000F2AD0BCF1010F27
:100560001CD0BCF1020F31D11DE0BCF1110F17D02E
:10057000BCF1120F2AD119E0B8F5881F19D006DC9A
:10058000B8F5803F15D0B8F5801F1FD111E0B8F540
:10059000001F0ED0B8F5041F18D10AE0CB6815E093
:1005A000CB681B1D12E0CB6808330FE0CB680C331F
:1005B0000CE08B682BB1012B4FF0080303D0456191
:1005C00004E0042302E0056100E00023FF2A01D8D3
:1005D000064601E000F104064FEA840501D9A5F1C1
:1005E0002005D6F8008007FA05FC28EA0C0803FA73
:1005F00005F548EA0508C6F800804D68ED0062D5AB
:10060000374DAE6946F00106AE61AD6924F00306D0
:1006100005F001050095334D06EB050CDCF808509C
:10062000A607360F07FA06F825EA0805DFF8B880AE
:10063000404503D14FF0000817E044E0DFF8AC80FC
:10064000404502D14FF001080FE0DFF8A48040459B
:1006500002D14FF0020808E0DFF89880404502D14F
:100660004FF0030801E04FF0040808FA06F848EAE2
:100670000508CCF808804D68D9F80060ED024D46B9
:1006800001D5164300E096432E604D68DAF800600D
:10069000AD02554601D5164300E096432E604D68E5
:1006A000DBF80060AD035D4601D5164300E09643DC
:1006B0002E604D68DEF80060ED03754601D51643E7
:1006C00000E096432E60641C0D682A46E5407FF4E6
:1006D00031AFBDE8F88F00000804014000001110A0
:1006E000001002400000014000080140000C0140E1
:1006F000001001400014014001488068704700006C
:10070000000000200248816802781144816070472F
:1007100000000020074810B5016841F01001016099
:10072000032000F075F80F2000F006F800F024F820
:10073000002010BD0020024070B50D4D04464FF45E
:100740007A712878B1FBF0F00A490968B1FBF0F042
:1007500000F0C6FB48B9102C07D200222146501EDB
:1007600000F036F800206C6070BD012070BD000004
:10077000000000200C0000200C4808B5816941F001
:1007800001018161816901F001010091C16941F0BC
:100790008051C161C06900F08050009004484168F8
:1007A00021F0E06141F00071416008BD001002409D
:1007B00000000140002809DB00F01F0201219140E8
:1007C0004009800000F1E020C0F8001170470000EF
:1007D000F0B40E4B1B680C46C3F30223C3F10705AC
:1007E000042D00D90425191D072901D2002300E09A
:1007F000DB1E012606FA05F1491E214099409E4064
:10080000761E16403143F0BC00F082BD0CED00E0D6
:10081000064900F0070208684FF6FF03184040EA57
:100820000220034A10430860704700000CED00E00E
:100830000000FA052DE9F0470F46050061D0434E50
:10084000306800F00700B84209D2306820F0070095
:1008500038433060306800F00700B84251D1286852
:100860003B4C810712D5400703D5606840F4E06037
:1008700060602878000703D5606840F460506060CD
:100880006068A96820F0F000084360602878C0071D
:1008900028D06868012810D02168022810D0890764
:1008A00000292EDA616821F0030101436160FFF73E
:1008B00023FF804641F288390DE021688903EFE784
:1008C0008901EDE7FFF718FFA0EB0801494502D9C0
:1008D0000320BDE8F0876068696800F00C00B0EBA9
:1008E000810FEFD1306800F00700B8420BD93068B3
:1008F00020F0070038433060306800F00700B8424D
:1009000001D00120E5E72878400705D56068E9684F
:1009100020F4E060084360602878000706D560682E
:10092000296920F4605040EAC100606000F018F8C6
:100930006168084AC1F30311515CC8400649086068
:1009400006480068FFF7F8FE0020C2E700200240DA
:10095000001002409A1300080C0000200400002040
:100960000E4A51680E4801F00C03042B11D0082BDD
:100970000FD10C48C1F38343C903C05C0AD5516849
:10098000084AC1F34041921E515C054A5043B0FBF6
:10099000F1F07047044948437047000000100240DE
:1009A00000127A008A13000800093D002DE9F84F73
:1009B000040070D02078C04DC00749D06868C0F3EB
:1009C0008100012807D06868C0F38100022809D19E
:1009D0006868C00306D52868800339D56068002898
:1009E000E7D035E06068B0F5803F0BD010B1B0F5CE
:1009F000A02F11D0286820F480302860286820F4C7
:100A0000802002E0286840F480302860606890B15F
:100A1000FFF772FE06460AE0286840F4802028604E
:100A2000F0E700BFFFF768FE801B642873D82868D2
:100A30008003F7D50CE0FFF75FFE064605E000BF38
:100A4000FFF75AFE801B6428F0D828688003F7D48B
:100A500020789A4E80074FF001094FF0000839D5F1
:100A6000686810F00C0F07D06868C0F38100022896
:100A700009D16868C00306D42868800714D52069A6
:100A8000012808D110E02069B0B1C6F80090FFF746
:100A900033FE074605E00AE1FFF72EFEC01B0228E1
:100AA000C4D828688007F7D52868616920F0F80065
:100AB00040EAC10028600DE0C6F80080FFF71CFE88
:100AC000074604E0FFF718FEC01B022823D8286859
:100AD0008007F7D4207800072CD57948A169D9B1CF
:100AE000C0F80090FFF708FE074604E0FFF704FE99
:100AF000C01B02280FD8686A8007F7D571484FF4E9
:100B0000FA510068B0FBF1F0009000BF0098411E60
:100B10000091FAD20EE080E0C0F80080FFF7ECFD13
:100B2000074604E0FFF7E8FDC01B022875D8686A95
:100B30008007F7D42078400760D5E8690027C00017
:100B400008D4E86940F08050E861E869012700F0C6
:100B5000805000905C480168C90513D40168834641
:100B600041F480710160FFF7C7FD824606E000BFD7
:100B7000FFF7C2FDA0EB0A0064284ED8DBF80000A6
:100B8000C005F5D5E06801280AD008B1052813D0C2
:100B9000286A20F001002862286A20F0040002E0A0
:100BA000286A40F001002862E06841F2883B98B171
:100BB000FFF7A2FD82460BE0286A40F0040028629D
:100BC000EEE700BFFFF798FDA0EB0A0159455AD8A0
:100BD000286A8007F6D50CE0FFF78EFD824605E017
:100BE000FFF78AFDA0EB0A0159454CD8286A800717
:100BF000F6D41FB1E86920F08050E861E06988B35D
:100C00006968C1F38101022944D00228C6F86080D6
:100C100004D0FFF771FD044638E034E0FFF76CFDC7
:100C2000074604E0FFF768FDC01B02282BD82868A0
:100C30008001F7D4206AB0F5803F05D16868A168CB
:100C400020F4003008436860D4E90801084369686B
:100C500021F4741108436860C6F86090FFF74CFDFA
:100C6000044606E025E000BFFFF746FD001B022812
:100C700009D828688001F7D51BE000BFFFF73CFDCD
:100C8000001B022802D90320BDE8F88F28688001E4
:100C9000F4D40EE00128F7D06868226A00F48031AD
:100CA000914204D1616A00F47010884201D00120A1
:100CB000EAE70020E8E7000000100240000042429E
:100CC000800442420C00002000700040704770B564
:100CD000040009D0606A002540B125616561A56204
:100CE00094F8510040B10CE0012070BD6068B0F58F
:100CF000827FF4D0E561F2E784F85050204600F09E
:100D00003FF8022084F851002068016821F040017A
:100D10000160A088218900F4827001F40441084335
:100D2000A18901F400610843217C01F0020108431C
:100D3000217D01F001010843218B01F4007108437A
:100D4000217F01F03801084394F8201001F0800160
:100D50000843218D01F40051084321680860A0690F
:100D6000042101EA1040216848602068C16921F42B
:100D70000061C1616565012084F85100002070BDEB
:100D800070B586B00025064600950195029503953D
:100D900000681A4988422ED11949886940F4805068
:100DA0008861886900F480500490886940F00400EC
:100DB00088618869694600F004000490A0200090D2
:100DC00002200190032003900E48FFF7A5FB0F4C73
:100DD0000D4820601020C4E901058020C4E9030506
:100DE0006561A5612046E561FFF71EFB08B1FFF7CD
:100DF0006BFAB464666206B070BD0000003001405A
:100E0000001002400008014030000240680000204D
:100E100070B5044690F850000026012809D0012042
:100E200084F8500094F851000025012803D00226D0
:100E30004AE0022070BD89B182B1032084F85100DC
:100E400065652163A286E286A56365642564A5873E
:100E5000E587A068B0F5004F02D00BE0012633E033
:100E60002068016821F0400101602068016841F4B8
:100E700080410160A16C1648C862A16C1548886267
:100E8000A16C15480863A06C4563E38E2268216B52
:100E90000C32A06CFFF7F6FA20B1606D40F0100044
:100EA0006065DBE720680168490603D4016841F00A
:100EB000400101602068416841F0200141602068E4
:100EC000416841F00201416084F85050304670BDE5
:100ED000631100086D110008411100087047704748
:100EE00010B5401EB0F1807F01D3012010BD4FF03E
:100EF000E02460610F21601700F00AFA0020A06171
:100F000007202061002010BDFEE70000094808B559
:100F1000416941F0010141614069002200F0010096
:100F2000009011460D20FFF753FCBDE808400D204E
:100F3000FFF740BC00100240094808B5816941F044
:100F400020018161816901F020010091816941F0F6
:100F500004018161806900F00400009008BD000078
:100F600000100240104810B50E4901604FF4827124
:100F70004160002102228160C0E903120122426126
:100F8000520282611022C0E90721416281620A2176
:100F9000C162FFF79CFE002803D0BDE81040FFF7B8
:100FA00093B910BD0030014010000020FEE7FEE7BD
:100FB00070470000F8B5054600240A4E0BE0308962
:100FC000ADF80000B07A8DF802002046009900F0DC
:100FD000A7F8641CE4B2AC42F1D3E8B2BDE8F84033
:100FE00000F052B87A130008F8B5054600240B4EFD
:100FF0000DE000BFB6F80500ADF80000F0798DF8FF
:1010000002002046009900F08BF8641CE4B2AC4268
:10101000F0D3E8B2BDE8F84000F036B87A13000823
:10102000F8B5054600240A4E0BE07088ADF80000C4
:1010300030798DF802002046009900F071F8641CA8
:10104000E4B2AC42F1D3E8B2BDE8F84000F01CB81D
:101050007A13000800B599B064216846FFF7B4F828
:101060000748FFF733F90128FAD164226946054899
:10107000FFF7CEFE0A20FFF73DFA19B000BD0000D1
:1010800068000020100000202DE9F0410546401EB8
:1010900063283AD8002436E01D4904EB4402501876
:1010A0008A5C43781A4F807800211A4EB7F11807EE
:1010B00003F0010CC1F1070E16F80CC007F80EC0C2
:1010C00002F0010CC1F10F0E16F80CC007F80EC0AB
:1010D00000F0010CC1F1170E16F80CC05B085208A5
:1010E0004008491C07F80EC00829E1DB084E183EED
:1010F0000948FFF7EBF80128FAD1182231460748D2
:10110000FFF786FE641CAC42C6DBBDE8F081000040
:10111000C40000207A13000868000020100000209E
:1011200010B5642808D2054B00EB4002D0180C0A19
:1011300044709954090C817010BD0000C400002057
:1011400010B5406A01684A6822F003024A60416DA6
:1011500041F010014165012180F85110FFF7B6FD03
:1011600010BD10B5406AFFF7BAFE10BD38B5054690
:10117000446AFFF7C1FA024628680068800623D453
:101180002068416821F0200141602068416821F019
:10119000020141606421204600F01AF818B1606D28
:1011A00040F020006065A068002118B92068C2687E
:1011B00080680090E186012084F85100606D18B1CC
:1011C0002046FFF783FD38BD2046FFF787FE38BD78
:1011D00038B50B46009204460022802100F008F842
:1011E000002804D0606D40F020006065032038BD09
:1011F0002DE9F8431E46914688460446089DFFF7B0
:101200007BFA401B351AFFF777FA07462548006836
:10121000C0F3CB30684338E0701C37D0FFF76CFA6E
:10122000C01BA84203D215B1009860B32CE020681F
:10123000416821F0E00141606068B0F5827F0BD128
:10124000A068B0F5004F02D0B0F5806F04D12068DF
:10125000016821F040010160A06AB0F5005F09D18A
:101260002068016821F4005101602068016841F4A0
:1012700000510160012084F85100002084F85000E2
:101280000320BDE8F8830025401E00902068816897
:1012900038EA010004D000214945BDD10020F0E723
:1012A0000121F9E70C0000207047FFF72BBA30B599
:1012B0008FB028216846FEF787FF14210AA8FEF7A1
:1012C00083FF01210804CDE90010002402940225C7
:1012D0000491CDE907504FF4E01009906846FFF7FC
:1012E00065FB08B172B6FEE70F20CDE90A054FF4A1
:1012F0008060CDE90C4002210AA80E94FFF79AFA0B
:10130000002801D072B6FEE70FB030BD7047FEE78F
:101310000907090E002804DB00F1E02080F8001422
:10132000704700F00F0000F1E02080F8141D7047B6
:10133000FFF7F0F9FFF7BBFFFFF7FEFDFFF7E6FD54
:10134000FFF710FE4FF47A746420FFF769FEFFF791
:1013500081FE2046FFF7CEF86420FFF745FEFFF739
:1013600079FE2046FFF7C6F86420FFF723FEFFF75B
:1013700071FE2046FFF7BEF8E6E7C0F81E00000049
:1013800032000000645050500102020304050607B9
:1013900008090A0B0C0D0E0F1010000000000000D1
:1013A000000001020304060708090000CC1300082E
:1013B000000000201000000028010008DC130008D5
:1013C0001000002040080000440100080100000057
:0C13D00010000000000000000024F400E9
:04000005080000ED02
:00000001FF
